{
  "_format": "hh-sol-artifact-1",
  "contractName": "CrowdFunder",
  "sourceName": "contracts/CrowdFunder.sol",
  "abi": [
    {
      "inputs": [],
      "name": "Crf_CSA",
      "type": "error"
    },
    {
      "inputs": [],
      "name": "Crf_DonF",
      "type": "error"
    },
    {
      "inputs": [],
      "name": "Crf_NotCrtr",
      "type": "error"
    },
    {
      "inputs": [],
      "name": "Crf_PubF",
      "type": "error"
    },
    {
      "inputs": [],
      "name": "Crf_RefF",
      "type": "error"
    },
    {
      "anonymous": false,
      "inputs": [
        {
          "indexed": true,
          "internalType": "address",
          "name": "_campaignAddress",
          "type": "address"
        },
        {
          "indexed": true,
          "internalType": "address",
          "name": "_creator",
          "type": "address"
        },
        {
          "indexed": false,
          "internalType": "string",
          "name": "_title",
          "type": "string"
        },
        {
          "indexed": false,
          "internalType": "string",
          "name": "_description",
          "type": "string"
        },
        {
          "indexed": false,
          "internalType": "string",
          "name": "_category",
          "type": "string"
        },
        {
          "indexed": false,
          "internalType": "string",
          "name": "_tags",
          "type": "string"
        }
      ],
      "name": "CampaignAdded",
      "type": "event"
    },
    {
      "anonymous": false,
      "inputs": [
        {
          "indexed": true,
          "internalType": "address",
          "name": "_funder",
          "type": "address"
        },
        {
          "indexed": true,
          "internalType": "address",
          "name": "_campaignAddress",
          "type": "address"
        },
        {
          "indexed": false,
          "internalType": "uint256",
          "name": "_val",
          "type": "uint256"
        }
      ],
      "name": "CampaignFunded",
      "type": "event"
    },
    {
      "anonymous": false,
      "inputs": [
        {
          "indexed": false,
          "internalType": "address",
          "name": "_campaignAddress",
          "type": "address"
        },
        {
          "indexed": false,
          "internalType": "address",
          "name": "_creator",
          "type": "address"
        }
      ],
      "name": "CampaignPublished",
      "type": "event"
    },
    {
      "anonymous": false,
      "inputs": [
        {
          "indexed": true,
          "internalType": "address",
          "name": "_campaignAddress",
          "type": "address"
        }
      ],
      "name": "CampaignRemoved",
      "type": "event"
    },
    {
      "anonymous": false,
      "inputs": [
        {
          "indexed": true,
          "internalType": "address",
          "name": "_withdrawer",
          "type": "address"
        },
        {
          "indexed": true,
          "internalType": "address",
          "name": "_campaignAddress",
          "type": "address"
        },
        {
          "indexed": false,
          "internalType": "uint256",
          "name": "_val",
          "type": "uint256"
        }
      ],
      "name": "CampaignShrunk",
      "type": "event"
    },
    {
      "anonymous": false,
      "inputs": [
        {
          "indexed": true,
          "internalType": "address",
          "name": "_address",
          "type": "address"
        },
        {
          "indexed": false,
          "internalType": "string",
          "name": "_username",
          "type": "string"
        },
        {
          "indexed": false,
          "internalType": "string",
          "name": "_twitter",
          "type": "string"
        },
        {
          "indexed": false,
          "internalType": "string",
          "name": "_email",
          "type": "string"
        },
        {
          "indexed": false,
          "internalType": "string",
          "name": "_homeAddress",
          "type": "string"
        },
        {
          "indexed": false,
          "internalType": "string",
          "name": "_pfp",
          "type": "string"
        }
      ],
      "name": "UserAdded",
      "type": "event"
    },
    {
      "stateMutability": "payable",
      "type": "fallback"
    },
    {
      "inputs": [
        {
          "internalType": "string",
          "name": "_title",
          "type": "string"
        },
        {
          "internalType": "string",
          "name": "_description",
          "type": "string"
        },
        {
          "internalType": "string",
          "name": "_category",
          "type": "string"
        },
        {
          "internalType": "string",
          "name": "_tags",
          "type": "string"
        },
        {
          "internalType": "uint256",
          "name": "_goalAmount",
          "type": "uint256"
        },
        {
          "internalType": "uint256",
          "name": "_duration",
          "type": "uint256"
        },
        {
          "internalType": "string",
          "name": "_imageURI",
          "type": "string"
        }
      ],
      "name": "addCampaign",
      "outputs": [],
      "stateMutability": "nonpayable",
      "type": "function"
    },
    {
      "inputs": [
        {
          "internalType": "address",
          "name": "_address",
          "type": "address"
        },
        {
          "internalType": "string",
          "name": "_username",
          "type": "string"
        },
        {
          "internalType": "string",
          "name": "_twitter",
          "type": "string"
        },
        {
          "internalType": "string",
          "name": "_email",
          "type": "string"
        },
        {
          "internalType": "string",
          "name": "_homeAddress",
          "type": "string"
        },
        {
          "internalType": "string",
          "name": "_pfp",
          "type": "string"
        }
      ],
      "name": "addUser",
      "outputs": [],
      "stateMutability": "nonpayable",
      "type": "function"
    },
    {
      "inputs": [],
      "name": "campaignCounter",
      "outputs": [
        {
          "internalType": "uint256",
          "name": "",
          "type": "uint256"
        }
      ],
      "stateMutability": "view",
      "type": "function"
    },
    {
      "inputs": [
        {
          "internalType": "address",
          "name": "_campaignAddress",
          "type": "address"
        }
      ],
      "name": "donateToCampaign",
      "outputs": [],
      "stateMutability": "payable",
      "type": "function"
    },
    {
      "inputs": [
        {
          "internalType": "address",
          "name": "_campaignAddress",
          "type": "address"
        },
        {
          "internalType": "address",
          "name": "_upkeepCreator",
          "type": "address"
        },
        {
          "internalType": "address",
          "name": "_linkToken",
          "type": "address"
        }
      ],
      "name": "publishCampaign",
      "outputs": [],
      "stateMutability": "nonpayable",
      "type": "function"
    },
    {
      "inputs": [
        {
          "internalType": "address",
          "name": "_campaignAddress",
          "type": "address"
        }
      ],
      "name": "refundFromCampaign",
      "outputs": [],
      "stateMutability": "nonpayable",
      "type": "function"
    },
    {
      "inputs": [
        {
          "internalType": "address",
          "name": "_campaignAddress",
          "type": "address"
        }
      ],
      "name": "removeCampaign",
      "outputs": [],
      "stateMutability": "nonpayable",
      "type": "function"
    },
    {
      "stateMutability": "payable",
      "type": "receive"
    }
  ],
  "bytecode": "0x608060405234801561001057600080fd5b50615ed0806100206000396000f3fe6080604052600436106200007f5760003560e01c8063bbfade3e1162000055578063bbfade3e1462000105578063e4663a5b1462000133578063fab62a1d1462000161578063fca604d7146200018f5762000087565b80631a702aa014620000895780637c6abc8214620000b7578063ac3d15fb14620000d75762000087565b366200008757005b005b3480156200009657600080fd5b50620000b56004803603810190620000af919062000e67565b620001bf565b005b620000d56004803603810190620000cf919062000f9e565b6200021f565b005b348015620000e457600080fd5b50620001036004803603810190620000fd919062000f9e565b620003c9565b005b3480156200011257600080fd5b506200013160048036038101906200012b91906200100b565b62000674565b005b3480156200014057600080fd5b506200015f600480360381019062000159919062000f9e565b620007b6565b005b3480156200016e57600080fd5b506200018d600480360381019062000187919062001159565b62000ac0565b005b3480156200019c57600080fd5b50620001a762000c60565b604051620001b69190620011c6565b60405180910390f35b8573ffffffffffffffffffffffffffffffffffffffff167f8a71481c426e212d085148853642cbd73769f57ca8e2a96eca998197465ab41686868686866040516200020f95949392919062001276565b60405180910390a2505050505050565b60008173ffffffffffffffffffffffffffffffffffffffff1634336040516024016200024c919062001307565b6040516020818303038152906040527e362a95000000000000000000000000000000000000000000000000000000007bffffffffffffffffffffffffffffffffffffffffffffffffffffffff19166020820180517bffffffffffffffffffffffffffffffffffffffffffffffffffffffff8381831617835250505050604051620002d7919062001371565b60006040518083038185875af1925050503d806000811462000316576040519150601f19603f3d011682016040523d82523d6000602084013e6200031b565b606091505b50509050801562000393578173ffffffffffffffffffffffffffffffffffffffff163373ffffffffffffffffffffffffffffffffffffffff167f31dfdd0cdbba4daad7dbdc3bee4f31a7843784462febd6b9a72a11b282c41ef934604051620003859190620011c6565b60405180910390a3620003c5565b6040517f6bfd065c00000000000000000000000000000000000000000000000000000000815260040160405180910390fd5b5050565b6000600160008373ffffffffffffffffffffffffffffffffffffffff1673ffffffffffffffffffffffffffffffffffffffff16815260200190815260200160002060009054906101000a900473ffffffffffffffffffffffffffffffffffffffff1673ffffffffffffffffffffffffffffffffffffffff166309917c50336040518263ffffffff1660e01b815260040162000465919062001307565b60206040518083038186803b1580156200047e57600080fd5b505afa15801562000493573d6000803e3d6000fd5b505050506040513d601f19601f82011682018060405250810190620004b99190620013a1565b905060008111620004c957600080fd5b60008273ffffffffffffffffffffffffffffffffffffffff1633604051602401620004f5919062001307565b6040516020818303038152906040527ffa89401a000000000000000000000000000000000000000000000000000000007bffffffffffffffffffffffffffffffffffffffffffffffffffffffff19166020820180517bffffffffffffffffffffffffffffffffffffffffffffffffffffffff838183161783525050505060405162000581919062001371565b6000604051808303816000865af19150503d8060008114620005c0576040519150601f19603f3d011682016040523d82523d6000602084013e620005c5565b606091505b5050905080156200063d578273ffffffffffffffffffffffffffffffffffffffff163373ffffffffffffffffffffffffffffffffffffffff167f8cb455cec59b17d4c723945fe8127937707037e0bb6da7ed63742fcb9f6babe3846040516200062f9190620011c6565b60405180910390a36200066f565b6040517fda3e747c00000000000000000000000000000000000000000000000000000000815260040160405180910390fd5b505050565b60003033898989898989896040516200068d9062000c7e565b620006a1999897969594939291906200143e565b604051809103906000f080158015620006be573d6000803e3d6000fd5b50905080600160008373ffffffffffffffffffffffffffffffffffffffff1673ffffffffffffffffffffffffffffffffffffffff16815260200190815260200160002060006101000a81548173ffffffffffffffffffffffffffffffffffffffff021916908373ffffffffffffffffffffffffffffffffffffffff1602179055503373ffffffffffffffffffffffffffffffffffffffff168173ffffffffffffffffffffffffffffffffffffffff167f54aab6ebc201e42488e3fdefdd10c9b99816e9dc15e8a77f1fba0bd435a414578a8a8a8a604051620007a4949392919062001500565b60405180910390a35050505050505050565b3373ffffffffffffffffffffffffffffffffffffffff16600160008373ffffffffffffffffffffffffffffffffffffffff1673ffffffffffffffffffffffffffffffffffffffff16815260200190815260200160002060009054906101000a900473ffffffffffffffffffffffffffffffffffffffff1673ffffffffffffffffffffffffffffffffffffffff1663b145603e6040518163ffffffff1660e01b815260040160206040518083038186803b1580156200087357600080fd5b505afa15801562000888573d6000803e3d6000fd5b505050506040513d601f19601f82011682018060405250810190620008ae9190620015ae565b73ffffffffffffffffffffffffffffffffffffffff1614620008fc576040517f06256c5e00000000000000000000000000000000000000000000000000000000815260040160405180910390fd5b6000600160008373ffffffffffffffffffffffffffffffffffffffff1673ffffffffffffffffffffffffffffffffffffffff16815260200190815260200160002060009054906101000a900473ffffffffffffffffffffffffffffffffffffffff1673ffffffffffffffffffffffffffffffffffffffff1663ce845d1d6040518163ffffffff1660e01b815260040160206040518083038186803b158015620009a457600080fd5b505afa158015620009b9573d6000803e3d6000fd5b505050506040513d601f19601f82011682018060405250810190620009df9190620013a1565b111562000a18576040517fb2032d6600000000000000000000000000000000000000000000000000000000815260040160405180910390fd5b600160008273ffffffffffffffffffffffffffffffffffffffff1673ffffffffffffffffffffffffffffffffffffffff16815260200190815260200160002060006101000a81549073ffffffffffffffffffffffffffffffffffffffff02191690558073ffffffffffffffffffffffffffffffffffffffff167fd41d62ed7a46b1f2f4c0a4c0fa40c95bbe14a7d55034ff9817b743d6cb79353660405160405180910390a250565b60008373ffffffffffffffffffffffffffffffffffffffff1683838660405160240162000af093929190620015e0565b6040516020818303038152906040527f5f700266000000000000000000000000000000000000000000000000000000007bffffffffffffffffffffffffffffffffffffffffffffffffffffffff19166020820180517bffffffffffffffffffffffffffffffffffffffffffffffffffffffff838183161783525050505060405162000b7c919062001371565b600060405180830381855af49150503d806000811462000bb9576040519150601f19603f3d011682016040523d82523d6000602084013e62000bbe565b606091505b50509050801562000c285762000be1600160005462000c6690919063ffffffff16565b6000819055507f4ee76a1c89ccbef26f098ac48c95b7da87fe34749fea8758a71a3dc4ccc28bcd843360405162000c1a9291906200161d565b60405180910390a162000c5a565b6040517f7f42f20d00000000000000000000000000000000000000000000000000000000815260040160405180910390fd5b50505050565b60005481565b6000818362000c76919062001679565b905092915050565b6147c480620016d783390190565b6000604051905090565b600080fd5b600080fd5b600073ffffffffffffffffffffffffffffffffffffffff82169050919050565b600062000ccd8262000ca0565b9050919050565b62000cdf8162000cc0565b811462000ceb57600080fd5b50565b60008135905062000cff8162000cd4565b92915050565b600080fd5b600080fd5b6000601f19601f8301169050919050565b7f4e487b7100000000000000000000000000000000000000000000000000000000600052604160045260246000fd5b62000d5a8262000d0f565b810181811067ffffffffffffffff8211171562000d7c5762000d7b62000d20565b5b80604052505050565b600062000d9162000c8c565b905062000d9f828262000d4f565b919050565b600067ffffffffffffffff82111562000dc25762000dc162000d20565b5b62000dcd8262000d0f565b9050602081019050919050565b82818337600083830152505050565b600062000e0062000dfa8462000da4565b62000d85565b90508281526020810184848401111562000e1f5762000e1e62000d0a565b5b62000e2c84828562000dda565b509392505050565b600082601f83011262000e4c5762000e4b62000d05565b5b813562000e5e84826020860162000de9565b91505092915050565b60008060008060008060c0878903121562000e875762000e8662000c96565b5b600062000e9789828a0162000cee565b965050602087013567ffffffffffffffff81111562000ebb5762000eba62000c9b565b5b62000ec989828a0162000e34565b955050604087013567ffffffffffffffff81111562000eed5762000eec62000c9b565b5b62000efb89828a0162000e34565b945050606087013567ffffffffffffffff81111562000f1f5762000f1e62000c9b565b5b62000f2d89828a0162000e34565b935050608087013567ffffffffffffffff81111562000f515762000f5062000c9b565b5b62000f5f89828a0162000e34565b92505060a087013567ffffffffffffffff81111562000f835762000f8262000c9b565b5b62000f9189828a0162000e34565b9150509295509295509295565b60006020828403121562000fb75762000fb662000c96565b5b600062000fc78482850162000cee565b91505092915050565b6000819050919050565b62000fe58162000fd0565b811462000ff157600080fd5b50565b600081359050620010058162000fda565b92915050565b600080600080600080600060e0888a0312156200102d576200102c62000c96565b5b600088013567ffffffffffffffff8111156200104e576200104d62000c9b565b5b6200105c8a828b0162000e34565b975050602088013567ffffffffffffffff81111562001080576200107f62000c9b565b5b6200108e8a828b0162000e34565b965050604088013567ffffffffffffffff811115620010b257620010b162000c9b565b5b620010c08a828b0162000e34565b955050606088013567ffffffffffffffff811115620010e457620010e362000c9b565b5b620010f28a828b0162000e34565b9450506080620011058a828b0162000ff4565b93505060a0620011188a828b0162000ff4565b92505060c088013567ffffffffffffffff8111156200113c576200113b62000c9b565b5b6200114a8a828b0162000e34565b91505092959891949750929550565b60008060006060848603121562001175576200117462000c96565b5b6000620011858682870162000cee565b9350506020620011988682870162000cee565b9250506040620011ab8682870162000cee565b9150509250925092565b620011c08162000fd0565b82525050565b6000602082019050620011dd6000830184620011b5565b92915050565b600081519050919050565b600082825260208201905092915050565b60005b838110156200121f57808201518184015260208101905062001202565b838111156200122f576000848401525b50505050565b60006200124282620011e3565b6200124e8185620011ee565b935062001260818560208601620011ff565b6200126b8162000d0f565b840191505092915050565b600060a082019050818103600083015262001292818862001235565b90508181036020830152620012a8818762001235565b90508181036040830152620012be818662001235565b90508181036060830152620012d4818562001235565b90508181036080830152620012ea818462001235565b90509695505050505050565b620013018162000cc0565b82525050565b60006020820190506200131e6000830184620012f6565b92915050565b600081519050919050565b600081905092915050565b6000620013478262001324565b6200135381856200132f565b935062001365818560208601620011ff565b80840191505092915050565b60006200137f82846200133a565b915081905092915050565b6000815190506200139b8162000fda565b92915050565b600060208284031215620013ba57620013b962000c96565b5b6000620013ca848285016200138a565b91505092915050565b6000819050919050565b6000620013fe620013f8620013f28462000ca0565b620013d3565b62000ca0565b9050919050565b60006200141282620013dd565b9050919050565b6000620014268262001405565b9050919050565b620014388162001419565b82525050565b60006101208201905062001456600083018c620012f6565b62001465602083018b6200142d565b818103604083015262001479818a62001235565b905081810360608301526200148f818962001235565b90508181036080830152620014a5818862001235565b905081810360a0830152620014bb818762001235565b9050620014cc60c0830186620011b5565b620014db60e0830185620011b5565b818103610100830152620014f0818462001235565b90509a9950505050505050505050565b600060808201905081810360008301526200151c818762001235565b9050818103602083015262001532818662001235565b9050818103604083015262001548818562001235565b905081810360608301526200155e818462001235565b905095945050505050565b6000620015768262000ca0565b9050919050565b620015888162001569565b81146200159457600080fd5b50565b600081519050620015a8816200157d565b92915050565b600060208284031215620015c757620015c662000c96565b5b6000620015d78482850162001597565b91505092915050565b6000606082019050620015f76000830186620012f6565b620016066020830185620012f6565b620016156040830184620012f6565b949350505050565b6000604082019050620016346000830185620012f6565b620016436020830184620012f6565b9392505050565b7f4e487b7100000000000000000000000000000000000000000000000000000000600052601160045260246000fd5b6000620016868262000fd0565b9150620016938362000fd0565b9250827fffffffffffffffffffffffffffffffffffffffffffffffffffffffffffffffff03821115620016cb57620016ca6200164a565b5b82820190509291505056fe60e06040526000600b60006101000a81548160ff021916908360018111156200002d576200002c620002b5565b5b02179055506000600b60016101000a81548160ff021916908360028111156200005b576200005a620002b5565b5b02179055503480156200006d57600080fd5b50604051620047c4380380620047c4833981810160405281019062000093919062000521565b60016000819055508873ffffffffffffffffffffffffffffffffffffffff1660808173ffffffffffffffffffffffffffffffffffffffff1660601b815250508773ffffffffffffffffffffffffffffffffffffffff1660a08173ffffffffffffffffffffffffffffffffffffffff1660601b8152505086600190805190602001906200012192919062000205565b5085600290805190602001906200013a92919062000205565b5084600390805190602001906200015392919062000205565b5083600690805190602001906200016c92919062000205565b50826007819055504260c08181525050624f1a0082116200018e578162000193565b624f1a005b600881905550620001b760085460c051620001ed60201b620029121790919060201c565b600a819055508060049080519060200190620001d592919062000205565b5060006009819055505050505050505050506200078c565b60008183620001fd9190620006ca565b905092915050565b828054620002139062000756565b90600052602060002090601f01602090048101928262000237576000855562000283565b82601f106200025257805160ff191683800117855562000283565b8280016001018555821562000283579182015b828111156200028257825182559160200191906001019062000265565b5b50905062000292919062000296565b5090565b5b80821115620002b157600081600090555060010162000297565b5090565b7f4e487b7100000000000000000000000000000000000000000000000000000000600052602160045260246000fd5b6000604051905090565b600080fd5b600080fd5b600073ffffffffffffffffffffffffffffffffffffffff82169050919050565b60006200032582620002f8565b9050919050565b620003378162000318565b81146200034357600080fd5b50565b60008151905062000357816200032c565b92915050565b600080fd5b600080fd5b6000601f19601f8301169050919050565b7f4e487b7100000000000000000000000000000000000000000000000000000000600052604160045260246000fd5b620003b28262000367565b810181811067ffffffffffffffff82111715620003d457620003d362000378565b5b80604052505050565b6000620003e9620002e4565b9050620003f78282620003a7565b919050565b600067ffffffffffffffff8211156200041a576200041962000378565b5b620004258262000367565b9050602081019050919050565b60005b838110156200045257808201518184015260208101905062000435565b8381111562000462576000848401525b50505050565b60006200047f6200047984620003fc565b620003dd565b9050828152602081018484840111156200049e576200049d62000362565b5b620004ab84828562000432565b509392505050565b600082601f830112620004cb57620004ca6200035d565b5b8151620004dd84826020860162000468565b91505092915050565b6000819050919050565b620004fb81620004e6565b81146200050757600080fd5b50565b6000815190506200051b81620004f0565b92915050565b60008060008060008060008060006101208a8c031215620005475762000546620002ee565b5b6000620005578c828d0162000346565b99505060206200056a8c828d0162000346565b98505060408a015167ffffffffffffffff8111156200058e576200058d620002f3565b5b6200059c8c828d01620004b3565b97505060608a015167ffffffffffffffff811115620005c057620005bf620002f3565b5b620005ce8c828d01620004b3565b96505060808a015167ffffffffffffffff811115620005f257620005f1620002f3565b5b620006008c828d01620004b3565b95505060a08a015167ffffffffffffffff811115620006245762000623620002f3565b5b620006328c828d01620004b3565b94505060c0620006458c828d016200050a565b93505060e0620006588c828d016200050a565b9250506101008a015167ffffffffffffffff8111156200067d576200067c620002f3565b5b6200068b8c828d01620004b3565b9150509295985092959850929598565b7f4e487b7100000000000000000000000000000000000000000000000000000000600052601160045260246000fd5b6000620006d782620004e6565b9150620006e483620004e6565b9250827fffffffffffffffffffffffffffffffffffffffffffffffffffffffffffffffff038211156200071c576200071b6200069b565b5b828201905092915050565b7f4e487b7100000000000000000000000000000000000000000000000000000000600052602260045260246000fd5b600060028204905060018216806200076f57607f821691505b6020821081141562000786576200078562000727565b5b50919050565b60805160601c60a05160601c60c051613fa06200082460003960008181611c3801526125750152600081816108a301528181610c2b015281816116420152818161176f015281816118ed015281816119f801528181611afb01528181611bac01528181611cca01528181611e8a01528181612046015281816121e401526124a70152600081816107de01526125fb0152613fa06000f3fe6080604052600436106101e65760003560e01c80636235887a11610102578063bf66e2c811610095578063e7cf1ab711610064578063e7cf1ab7146106d1578063f301af42146106fa578063fa6ded391461073c578063fa89401a14610765576101ed565b8063bf66e2c814610625578063c5cd507814610650578063ce2a05721461067b578063ce845d1d146106a6576101ed565b8063743857cb116100d1578063743857cb1461057b57806399a8502d146105a65780639a913793146105d1578063b145603e146105fa576101ed565b80636235887a146104d257806363bd1d4a1461050f5780636e04ff0d1461052657806371aac7f914610564576101ed565b80632636b9451161017a5780634d695bdb116101495780634d695bdb1461042a5780634ef89719146104535780635f7002661461047e57806360fa9a72146104a7576101ed565b80632636b9451461038057806329dcb0cf146103ab5780634278ac8b146103d65780634585e33b14610401576101ed565b806315a46ee6116101b657806315a46ee61461029e5780631774d960146102c95780631910bdc2146103065780631c4b774b14610343576101ed565b8062362a95146101ef57806309917c501461020b5780630c611f24146102485780630fb5a6b414610273576101ed565b366101ed57005b005b61020960048036038101906102049190612c29565b61078e565b005b34801561021757600080fd5b50610232600480360381019061022d9190612c29565b610bfd565b60405161023f9190612c6f565b60405180910390f35b34801561025457600080fd5b5061025d610c15565b60405161026a9190612edf565b60405180910390f35b34801561027f57600080fd5b5061028861100f565b6040516102959190612c6f565b60405180910390f35b3480156102aa57600080fd5b506102b3611015565b6040516102c09190612f4b565b60405180910390f35b3480156102d557600080fd5b506102f060048036038101906102eb9190612f99565b6110a3565b6040516102fd9190612c6f565b60405180910390f35b34801561031257600080fd5b5061032d60048036038101906103289190612c29565b6110d4565b60405161033a9190613088565b60405180910390f35b34801561034f57600080fd5b5061036a600480360381019061036591906130aa565b61116b565b6040516103779190613279565b60405180910390f35b34801561038c57600080fd5b506103956114a8565b6040516103a29190612c6f565b60405180910390f35b3480156103b757600080fd5b506103c06114ae565b6040516103cd9190612c6f565b60405180910390f35b3480156103e257600080fd5b506103eb6114b4565b6040516103f89190612f4b565b60405180910390f35b34801561040d57600080fd5b5061042860048036038101906104239190613300565b611542565b005b34801561043657600080fd5b50610451600480360381019061044c919061347d565b611640565b005b34801561045f57600080fd5b506104686116df565b6040516104759190612f4b565b60405180910390f35b34801561048a57600080fd5b506104a560048036038101906104a091906134c6565b61176d565b005b3480156104b357600080fd5b506104bc6119bf565b6040516104c99190613528565b60405180910390f35b3480156104de57600080fd5b506104f960048036038101906104f491906130aa565b6119d2565b6040516105069190612c6f565b60405180910390f35b34801561051b57600080fd5b506105246119f6565b005b34801561053257600080fd5b5061054d600480360381019061054891906135e4565b611bf0565b60405161055b929190613691565b60405180910390f35b34801561057057600080fd5b50610579611cc8565b005b34801561058757600080fd5b50610590611de7565b60405161059d9190613709565b60405180910390f35b3480156105b257600080fd5b506105bb611dfa565b6040516105c89190612f4b565b60405180910390f35b3480156105dd57600080fd5b506105f860048036038101906105f39190613831565b611e88565b005b34801561060657600080fd5b5061060f612044565b60405161061c9190613978565b60405180910390f35b34801561063157600080fd5b5061063a612068565b6040516106479190613088565b60405180910390f35b34801561065c57600080fd5b506106656120c0565b6040516106729190612f4b565b60405180910390f35b34801561068757600080fd5b5061069061214e565b60405161069d9190612f4b565b60405180910390f35b3480156106b257600080fd5b506106bb6121dc565b6040516106c89190612c6f565b60405180910390f35b3480156106dd57600080fd5b506106f860048036038101906106f391906130aa565b6121e2565b005b34801561070657600080fd5b50610721600480360381019061071c91906130aa565b61234c565b60405161073396959493929190613993565b60405180910390f35b34801561074857600080fd5b50610763600480360381019061075e91906130aa565b6124a5565b005b34801561077157600080fd5b5061078c60048036038101906107879190612c29565b6125ab565b005b600260005414156107d4576040517f08c379a00000000000000000000000000000000000000000000000000000000081526004016107cb90613a4e565b60405180910390fd5b60026000819055507f000000000000000000000000000000000000000000000000000000000000000073ffffffffffffffffffffffffffffffffffffffff163373ffffffffffffffffffffffffffffffffffffffff161461083457600080fd5b6000600281111561084857610847612d41565b5b600b60019054906101000a900460ff16600281111561086a57610869612d41565b5b146108a1576040517faeb8874900000000000000000000000000000000000000000000000000000000815260040160405180910390fd5b7f000000000000000000000000000000000000000000000000000000000000000073ffffffffffffffffffffffffffffffffffffffff168173ffffffffffffffffffffffffffffffffffffffff161415610927576040517f1e4a120d00000000000000000000000000000000000000000000000000000000815260040160405180910390fd5b61093c3460095461291290919063ffffffff16565b6009819055506000600d6000348152602001908152602001600020600001541180156109895750600d600034815260200190815260200160002060060160009054906101000a900460ff16155b15610a59576000600d6000348152602001908152602001600020600501541115610a58576109d76001600d60003481526020019081526020016000206005015461292890919063ffffffff16565b600d600034815260200190815260200160002060050181905550600e60008273ffffffffffffffffffffffffffffffffffffffff1673ffffffffffffffffffffffffffffffffffffffff1681526020019081526020016000203490806001815401808255809150506001900390600052602060002001600090919091909150555b5b6000600d600034815260200190815260200160002060000154118015610a9f5750600d600034815260200190815260200160002060060160009054906101000a900460ff165b15610b0b57600e60008273ffffffffffffffffffffffffffffffffffffffff1673ffffffffffffffffffffffffffffffffffffffff1681526020019081526020016000203490806001815401808255809150506001900390600052602060002001600090919091909150555b610b5d34600f60008473ffffffffffffffffffffffffffffffffffffffff1673ffffffffffffffffffffffffffffffffffffffff1681526020019081526020016000205461291290919063ffffffff16565b600f60008373ffffffffffffffffffffffffffffffffffffffff1673ffffffffffffffffffffffffffffffffffffffff168152602001908152602001600020819055508073ffffffffffffffffffffffffffffffffffffffff167fe76ad748537a48e778fef43dda4a6bd1b50cd62385f9f21a9ca267492355120834600954604051610bea929190613a6e565b60405180910390a2600160008190555050565b600f6020528060005260406000206000915090505481565b610c1d61293e565b6040518061018001604052807f000000000000000000000000000000000000000000000000000000000000000073ffffffffffffffffffffffffffffffffffffffff16815260200160018054610c7290613ac6565b80601f0160208091040260200160405190810160405280929190818152602001828054610c9e90613ac6565b8015610ceb5780601f10610cc057610100808354040283529160200191610ceb565b820191906000526020600020905b815481529060010190602001808311610cce57829003601f168201915b5050505050815260200160028054610d0290613ac6565b80601f0160208091040260200160405190810160405280929190818152602001828054610d2e90613ac6565b8015610d7b5780601f10610d5057610100808354040283529160200191610d7b565b820191906000526020600020905b815481529060010190602001808311610d5e57829003601f168201915b5050505050815260200160038054610d9290613ac6565b80601f0160208091040260200160405190810160405280929190818152602001828054610dbe90613ac6565b8015610e0b5780601f10610de057610100808354040283529160200191610e0b565b820191906000526020600020905b815481529060010190602001808311610dee57829003601f168201915b5050505050815260200160068054610e2290613ac6565b80601f0160208091040260200160405190810160405280929190818152602001828054610e4e90613ac6565b8015610e9b5780601f10610e7057610100808354040283529160200191610e9b565b820191906000526020600020905b815481529060010190602001808311610e7e57829003601f168201915b50505050508152602001600754815260200160085481526020016009548152602001600b60019054906101000a900460ff166002811115610edf57610ede612d41565b5b815260200160048054610ef190613ac6565b80601f0160208091040260200160405190810160405280929190818152602001828054610f1d90613ac6565b8015610f6a5780601f10610f3f57610100808354040283529160200191610f6a565b820191906000526020600020905b815481529060010190602001808311610f4d57829003601f168201915b5050505050815260200160058054610f8190613ac6565b80601f0160208091040260200160405190810160405280929190818152602001828054610fad90613ac6565b8015610ffa5780601f10610fcf57610100808354040283529160200191610ffa565b820191906000526020600020905b815481529060010190602001808311610fdd57829003601f168201915b50505050508152602001600a54815250905090565b60085481565b6005805461102290613ac6565b80601f016020809104026020016040519081016040528092919081815260200182805461104e90613ac6565b801561109b5780601f106110705761010080835404028352916020019161109b565b820191906000526020600020905b81548152906001019060200180831161107e57829003601f168201915b505050505081565b600e60205281600052604060002081815481106110bf57600080fd5b90600052602060002001600091509150505481565b6060600e60008373ffffffffffffffffffffffffffffffffffffffff1673ffffffffffffffffffffffffffffffffffffffff16815260200190815260200160002080548060200260200160405190810160405280929190818152602001828054801561115f57602002820191906000526020600020905b81548152602001906001019080831161114b575b50505050509050919050565b6111736129c7565b600d600083815260200190815260200160002060405180610100016040529081600082015481526020016001820180546111ac90613ac6565b80601f01602080910402602001604051908101604052809291908181526020018280546111d890613ac6565b80156112255780601f106111fa57610100808354040283529160200191611225565b820191906000526020600020905b81548152906001019060200180831161120857829003601f168201915b5050505050815260200160028201805461123e90613ac6565b80601f016020809104026020016040519081016040528092919081815260200182805461126a90613ac6565b80156112b75780601f1061128c576101008083540402835291602001916112b7565b820191906000526020600020905b81548152906001019060200180831161129a57829003601f168201915b5050505050815260200160038201805480602002602001604051908101604052809291908181526020016000905b8282101561139157838290600052602060002001805461130490613ac6565b80601f016020809104026020016040519081016040528092919081815260200182805461133090613ac6565b801561137d5780601f106113525761010080835404028352916020019161137d565b820191906000526020600020905b81548152906001019060200180831161136057829003601f168201915b5050505050815260200190600101906112e5565b50505050815260200160048201548152602001600582015481526020016006820160009054906101000a900460ff1615151515815260200160078201805480602002602001604051908101604052809291908181526020016000905b8282101561149957838290600052602060002001805461140c90613ac6565b80601f016020809104026020016040519081016040528092919081815260200182805461143890613ac6565b80156114855780601f1061145a57610100808354040283529160200191611485565b820191906000526020600020905b81548152906001019060200180831161146857829003601f168201915b5050505050815260200190600101906113ed565b50505050815250509050919050565b60075481565b600a5481565b600380546114c190613ac6565b80601f01602080910402602001604051908101604052809291908181526020018280546114ed90613ac6565b801561153a5780601f1061150f5761010080835404028352916020019161153a565b820191906000526020600020905b81548152906001019060200180831161151d57829003601f168201915b505050505081565b600061155c60405180602001604052806000815250611bf0565b50905080611596576040517fbc7a0a6300000000000000000000000000000000000000000000000000000000815260040160405180910390fd5b6001600b60016101000a81548160ff021916908360028111156115bc576115bb612d41565b5b02179055507f5cf8cd2bd40f758a95257bed666285eb82801f1bf9223b8ec1481e510ba2e82d306040516115f09190613b07565b60405180910390a16007546009541061163b577f5369558c667e962b633128a01c31764d053da51f61d17370d327ed17f77deccc306040516116329190613b07565b60405180910390a15b505050565b7f000000000000000000000000000000000000000000000000000000000000000073ffffffffffffffffffffffffffffffffffffffff163373ffffffffffffffffffffffffffffffffffffffff16146116c5576040517fb167e90c00000000000000000000000000000000000000000000000000000000815260040160405180910390fd5b80600590805190602001906116db929190612a0e565b5050565b600280546116ec90613ac6565b80601f016020809104026020016040519081016040528092919081815260200182805461171890613ac6565b80156117655780601f1061173a57610100808354040283529160200191611765565b820191906000526020600020905b81548152906001019060200180831161174857829003601f168201915b505050505081565b7f000000000000000000000000000000000000000000000000000000000000000073ffffffffffffffffffffffffffffffffffffffff163373ffffffffffffffffffffffffffffffffffffffff16146117f2576040517fb167e90c00000000000000000000000000000000000000000000000000000000815260040160405180910390fd5b6000839050600083905060008173ffffffffffffffffffffffffffffffffffffffff166370a08231876040518263ffffffff1660e01b81526004016118379190613b07565b60206040518083038186803b15801561184f57600080fd5b505afa158015611863573d6000803e3d6000fd5b505050506040513d601f19601f820116820180604052508101906118879190613b37565b14156118c8576040517f08c379a00000000000000000000000000000000000000000000000000000000081526004016118bf90613bb0565b60405180910390fd5b8173ffffffffffffffffffffffffffffffffffffffff16634c7e9be36001856207a1207f0000000000000000000000000000000000000000000000000000000000000000671bc16d674ec800006040518663ffffffff1660e01b8152600401611935959493929190613dae565b602060405180830381600087803b15801561194f57600080fd5b505af1158015611963573d6000803e3d6000fd5b505050506040513d601f19601f820116820180604052508101906119879190613b37565b600c819055506001600b60006101000a81548160ff021916908360018111156119b3576119b2612d41565b5b02179055505050505050565b600b60019054906101000a900460ff1681565b601081815481106119e257600080fd5b906000526020600020016000915090505481565b7f000000000000000000000000000000000000000000000000000000000000000073ffffffffffffffffffffffffffffffffffffffff163373ffffffffffffffffffffffffffffffffffffffff1614611a7b576040517fb167e90c00000000000000000000000000000000000000000000000000000000815260040160405180910390fd5b60016002811115611a8f57611a8e612d41565b5b600b60019054906101000a900460ff166002811115611ab157611ab0612d41565b5b14611ae8576040517faeb8874900000000000000000000000000000000000000000000000000000000815260040160405180910390fd5b60006009549050600060098190555060007f000000000000000000000000000000000000000000000000000000000000000073ffffffffffffffffffffffffffffffffffffffff1682604051611b3d90613e73565b60006040518083038185875af1925050503d8060008114611b7a576040519150601f19603f3d011682016040523d82523d6000602084013e611b7f565b606091505b505090508015611be7577fba5e837743d81ad0e6deb16089dbb65b549fdda8ad802fd8d4822884d70dc8b27f000000000000000000000000000000000000000000000000000000000000000030604051611bda929190613e88565b60405180910390a1611bec565b600080fd5b5050565b600060606000806002811115611c0957611c08612d41565b5b600b60019054906101000a900460ff166002811115611c2b57611c2a612d41565b5b1490506000600854611c667f00000000000000000000000000000000000000000000000000000000000000004261292890919063ffffffff16565b11905060008047119050818015611c7a5750825b8015611c835750805b9450846040518060400160405280600381526020017f307830000000000000000000000000000000000000000000000000000000000081525094509450505050915091565b7f000000000000000000000000000000000000000000000000000000000000000073ffffffffffffffffffffffffffffffffffffffff163373ffffffffffffffffffffffffffffffffffffffff1614611d4d576040517fb167e90c00000000000000000000000000000000000000000000000000000000815260040160405180910390fd5b60016002811115611d6157611d60612d41565b5b600b60019054906101000a900460ff166002811115611d8357611d82612d41565b5b1415611d8e57600080fd5b6002600b60016101000a81548160ff02191690836002811115611db457611db3612d41565b5b02179055507fb83ebe09f40e9293bdea1d6567fae3175119d3d0ff13c4b4df15994837dd7f5160405160405180910390a1565b600b60009054906101000a900460ff1681565b60018054611e0790613ac6565b80601f0160208091040260200160405190810160405280929190818152602001828054611e3390613ac6565b8015611e805780601f10611e5557610100808354040283529160200191611e80565b820191906000526020600020905b815481529060010190602001808311611e6357829003601f168201915b505050505081565b7f000000000000000000000000000000000000000000000000000000000000000073ffffffffffffffffffffffffffffffffffffffff163373ffffffffffffffffffffffffffffffffffffffff1614611f0d576040517fb167e90c00000000000000000000000000000000000000000000000000000000815260040160405180910390fd5b6010889080600181540180825580915050600190039060005260206000200160009091909190915055604051806101000160405280898152602001888152602001878152602001868152602001858152602001848152602001831515815260200182815250600d60008a8152602001908152602001600020600082015181600001556020820151816001019080519060200190611fab929190612a0e565b506040820151816002019080519060200190611fc8929190612a0e565b506060820151816003019080519060200190611fe5929190612a94565b506080820151816004015560a0820151816005015560c08201518160060160006101000a81548160ff02191690831515021790555060e0820151816007019080519060200190612036929190612a94565b509050505050505050505050565b7f000000000000000000000000000000000000000000000000000000000000000081565b606060108054806020026020016040519081016040528092919081815260200182805480156120b657602002820191906000526020600020905b8154815260200190600101908083116120a2575b5050505050905090565b600680546120cd90613ac6565b80601f01602080910402602001604051908101604052809291908181526020018280546120f990613ac6565b80156121465780601f1061211b57610100808354040283529160200191612146565b820191906000526020600020905b81548152906001019060200180831161212957829003601f168201915b505050505081565b6004805461215b90613ac6565b80601f016020809104026020016040519081016040528092919081815260200182805461218790613ac6565b80156121d45780601f106121a9576101008083540402835291602001916121d4565b820191906000526020600020905b8154815290600101906020018083116121b757829003601f168201915b505050505081565b60095481565b7f000000000000000000000000000000000000000000000000000000000000000073ffffffffffffffffffffffffffffffffffffffff163373ffffffffffffffffffffffffffffffffffffffff1614612267576040517fb167e90c00000000000000000000000000000000000000000000000000000000815260040160405180910390fd5b6000600181111561227b5761227a612d41565b5b600b60009054906101000a900460ff16600181111561229d5761229c612d41565b5b146122a757600080fd5b6000600d600083815260200190815260200160002060000154111561234957600d60008281526020019081526020016000206000808201600090556001820160006122f29190612af4565b6002820160006123029190612af4565b6003820160006123129190612b34565b600482016000905560058201600090556006820160006101000a81549060ff02191690556007820160006123469190612b34565b50505b50565b600d60205280600052604060002060009150905080600001549080600101805461237590613ac6565b80601f01602080910402602001604051908101604052809291908181526020018280546123a190613ac6565b80156123ee5780601f106123c3576101008083540402835291602001916123ee565b820191906000526020600020905b8154815290600101906020018083116123d157829003601f168201915b50505050509080600201805461240390613ac6565b80601f016020809104026020016040519081016040528092919081815260200182805461242f90613ac6565b801561247c5780601f106124515761010080835404028352916020019161247c565b820191906000526020600020905b81548152906001019060200180831161245f57829003601f168201915b5050505050908060040154908060050154908060060160009054906101000a900460ff16905086565b7f000000000000000000000000000000000000000000000000000000000000000073ffffffffffffffffffffffffffffffffffffffff163373ffffffffffffffffffffffffffffffffffffffff161461252a576040517fb167e90c00000000000000000000000000000000000000000000000000000000815260040160405180910390fd5b624f1a006125438260085461291290919063ffffffff16565b116125625761255d8160085461291290919063ffffffff16565b612567565b624f1a005b6008819055506125a26008547f000000000000000000000000000000000000000000000000000000000000000061291290919063ffffffff16565b600a8190555050565b600260005414156125f1576040517f08c379a00000000000000000000000000000000000000000000000000000000081526004016125e890613a4e565b60405180910390fd5b60026000819055507f000000000000000000000000000000000000000000000000000000000000000073ffffffffffffffffffffffffffffffffffffffff163373ffffffffffffffffffffffffffffffffffffffff161461265157600080fd5b6001600281111561266557612664612d41565b5b600b60019054906101000a900460ff16600281111561268757612686612d41565b5b14156126bf576040517faeb8874900000000000000000000000000000000000000000000000000000000815260040160405180910390fd5b6000600f60008373ffffffffffffffffffffffffffffffffffffffff1673ffffffffffffffffffffffffffffffffffffffff168152602001908152602001600020541415612739576040517f4cc8b68700000000000000000000000000000000000000000000000000000000815260040160405180910390fd5b6000600f60008373ffffffffffffffffffffffffffffffffffffffff1673ffffffffffffffffffffffffffffffffffffffff1681526020019081526020016000205490508060095410156127b9576040517f4d83c95000000000000000000000000000000000000000000000000000000000815260040160405180910390fd5b6127ce8160095461292890919063ffffffff16565b60098190555060008273ffffffffffffffffffffffffffffffffffffffff16826040516127fa90613e73565b60006040518083038185875af1925050503d8060008114612837576040519150601f19603f3d011682016040523d82523d6000602084013e61283c565b606091505b5050905080612877576040517f0520edd000000000000000000000000000000000000000000000000000000000815260040160405180910390fd5b600e60008473ffffffffffffffffffffffffffffffffffffffff1673ffffffffffffffffffffffffffffffffffffffff16815260200190815260200160002060006128c29190612b55565b600f60008473ffffffffffffffffffffffffffffffffffffffff1673ffffffffffffffffffffffffffffffffffffffff168152602001908152602001600020600090555050600160008190555050565b600081836129209190613ee0565b905092915050565b600081836129369190613f36565b905092915050565b604051806101800160405280600073ffffffffffffffffffffffffffffffffffffffff16815260200160608152602001606081526020016060815260200160608152602001600081526020016000815260200160008152602001600060028111156129ac576129ab612d41565b5b81526020016060815260200160608152602001600081525090565b604051806101000160405280600081526020016060815260200160608152602001606081526020016000815260200160008152602001600015158152602001606081525090565b828054612a1a90613ac6565b90600052602060002090601f016020900481019282612a3c5760008555612a83565b82601f10612a5557805160ff1916838001178555612a83565b82800160010185558215612a83579182015b82811115612a82578251825591602001919060010190612a67565b5b509050612a909190612b76565b5090565b828054828255906000526020600020908101928215612ae3579160200282015b82811115612ae2578251829080519060200190612ad2929190612a0e565b5091602001919060010190612ab4565b5b509050612af09190612b93565b5090565b508054612b0090613ac6565b6000825580601f10612b125750612b31565b601f016020900490600052602060002090810190612b309190612b76565b5b50565b5080546000825590600052602060002090810190612b529190612b93565b50565b5080546000825590600052602060002090810190612b739190612b76565b50565b5b80821115612b8f576000816000905550600101612b77565b5090565b5b80821115612bb35760008181612baa9190612af4565b50600101612b94565b5090565b6000604051905090565b600080fd5b600080fd5b600073ffffffffffffffffffffffffffffffffffffffff82169050919050565b6000612bf682612bcb565b9050919050565b612c0681612beb565b8114612c1157600080fd5b50565b600081359050612c2381612bfd565b92915050565b600060208284031215612c3f57612c3e612bc1565b5b6000612c4d84828501612c14565b91505092915050565b6000819050919050565b612c6981612c56565b82525050565b6000602082019050612c846000830184612c60565b92915050565b612c9381612beb565b82525050565b600081519050919050565b600082825260208201905092915050565b60005b83811015612cd3578082015181840152602081019050612cb8565b83811115612ce2576000848401525b50505050565b6000601f19601f8301169050919050565b6000612d0482612c99565b612d0e8185612ca4565b9350612d1e818560208601612cb5565b612d2781612ce8565b840191505092915050565b612d3b81612c56565b82525050565b7f4e487b7100000000000000000000000000000000000000000000000000000000600052602160045260246000fd5b60038110612d8157612d80612d41565b5b50565b6000819050612d9282612d70565b919050565b6000612da282612d84565b9050919050565b612db281612d97565b82525050565b600061018083016000830151612dd16000860182612c8a565b5060208301518482036020860152612de98282612cf9565b91505060408301518482036040860152612e038282612cf9565b91505060608301518482036060860152612e1d8282612cf9565b91505060808301518482036080860152612e378282612cf9565b91505060a0830151612e4c60a0860182612d32565b5060c0830151612e5f60c0860182612d32565b5060e0830151612e7260e0860182612d32565b50610100830151612e87610100860182612da9565b50610120830151848203610120860152612ea18282612cf9565b915050610140830151848203610140860152612ebd8282612cf9565b915050610160830151612ed4610160860182612d32565b508091505092915050565b60006020820190508181036000830152612ef98184612db8565b905092915050565b600082825260208201905092915050565b6000612f1d82612c99565b612f278185612f01565b9350612f37818560208601612cb5565b612f4081612ce8565b840191505092915050565b60006020820190508181036000830152612f658184612f12565b905092915050565b612f7681612c56565b8114612f8157600080fd5b50565b600081359050612f9381612f6d565b92915050565b60008060408385031215612fb057612faf612bc1565b5b6000612fbe85828601612c14565b9250506020612fcf85828601612f84565b9150509250929050565b600081519050919050565b600082825260208201905092915050565b6000819050602082019050919050565b60006130118383612d32565b60208301905092915050565b6000602082019050919050565b600061303582612fd9565b61303f8185612fe4565b935061304a83612ff5565b8060005b8381101561307b5781516130628882613005565b975061306d8361301d565b92505060018101905061304e565b5085935050505092915050565b600060208201905081810360008301526130a2818461302a565b905092915050565b6000602082840312156130c0576130bf612bc1565b5b60006130ce84828501612f84565b91505092915050565b600081519050919050565b600082825260208201905092915050565b6000819050602082019050919050565b600061310f8383612cf9565b905092915050565b6000602082019050919050565b600061312f826130d7565b61313981856130e2565b93508360208202850161314b856130f3565b8060005b8581101561318757848403895281516131688582613103565b945061317383613117565b925060208a0199505060018101905061314f565b50829750879550505050505092915050565b60008115159050919050565b6131ae81613199565b82525050565b6000610100830160008301516131cd6000860182612d32565b50602083015184820360208601526131e58282612cf9565b915050604083015184820360408601526131ff8282612cf9565b915050606083015184820360608601526132198282613124565b915050608083015161322e6080860182612d32565b5060a083015161324160a0860182612d32565b5060c083015161325460c08601826131a5565b5060e083015184820360e086015261326c8282613124565b9150508091505092915050565b6000602082019050818103600083015261329381846131b4565b905092915050565b600080fd5b600080fd5b600080fd5b60008083601f8401126132c0576132bf61329b565b5b8235905067ffffffffffffffff8111156132dd576132dc6132a0565b5b6020830191508360018202830111156132f9576132f86132a5565b5b9250929050565b6000806020838503121561331757613316612bc1565b5b600083013567ffffffffffffffff81111561333557613334612bc6565b5b613341858286016132aa565b92509250509250929050565b600080fd5b7f4e487b7100000000000000000000000000000000000000000000000000000000600052604160045260246000fd5b61338a82612ce8565b810181811067ffffffffffffffff821117156133a9576133a8613352565b5b80604052505050565b60006133bc612bb7565b90506133c88282613381565b919050565b600067ffffffffffffffff8211156133e8576133e7613352565b5b6133f182612ce8565b9050602081019050919050565b82818337600083830152505050565b600061342061341b846133cd565b6133b2565b90508281526020810184848401111561343c5761343b61334d565b5b6134478482856133fe565b509392505050565b600082601f8301126134645761346361329b565b5b813561347484826020860161340d565b91505092915050565b60006020828403121561349357613492612bc1565b5b600082013567ffffffffffffffff8111156134b1576134b0612bc6565b5b6134bd8482850161344f565b91505092915050565b6000806000606084860312156134df576134de612bc1565b5b60006134ed86828701612c14565b93505060206134fe86828701612c14565b925050604061350f86828701612c14565b9150509250925092565b61352281612d97565b82525050565b600060208201905061353d6000830184613519565b92915050565b600067ffffffffffffffff82111561355e5761355d613352565b5b61356782612ce8565b9050602081019050919050565b600061358761358284613543565b6133b2565b9050828152602081018484840111156135a3576135a261334d565b5b6135ae8482856133fe565b509392505050565b600082601f8301126135cb576135ca61329b565b5b81356135db848260208601613574565b91505092915050565b6000602082840312156135fa576135f9612bc1565b5b600082013567ffffffffffffffff81111561361857613617612bc6565b5b613624848285016135b6565b91505092915050565b61363681613199565b82525050565b600081519050919050565b600082825260208201905092915050565b60006136638261363c565b61366d8185613647565b935061367d818560208601612cb5565b61368681612ce8565b840191505092915050565b60006040820190506136a6600083018561362d565b81810360208301526136b88184613658565b90509392505050565b600281106136d2576136d1612d41565b5b50565b60008190506136e3826136c1565b919050565b60006136f3826136d5565b9050919050565b613703816136e8565b82525050565b600060208201905061371e60008301846136fa565b92915050565b600067ffffffffffffffff82111561373f5761373e613352565b5b602082029050602081019050919050565b600061376361375e84613724565b6133b2565b90508083825260208201905060208402830185811115613786576137856132a5565b5b835b818110156137cd57803567ffffffffffffffff8111156137ab576137aa61329b565b5b8086016137b8898261344f565b85526020850194505050602081019050613788565b5050509392505050565b600082601f8301126137ec576137eb61329b565b5b81356137fc848260208601613750565b91505092915050565b61380e81613199565b811461381957600080fd5b50565b60008135905061382b81613805565b92915050565b600080600080600080600080610100898b03121561385257613851612bc1565b5b60006138608b828c01612f84565b985050602089013567ffffffffffffffff81111561388157613880612bc6565b5b61388d8b828c0161344f565b975050604089013567ffffffffffffffff8111156138ae576138ad612bc6565b5b6138ba8b828c0161344f565b965050606089013567ffffffffffffffff8111156138db576138da612bc6565b5b6138e78b828c016137d7565b95505060806138f88b828c01612f84565b94505060a06139098b828c01612f84565b93505060c061391a8b828c0161381c565b92505060e089013567ffffffffffffffff81111561393b5761393a612bc6565b5b6139478b828c016137d7565b9150509295985092959890939650565b600061396282612bcb565b9050919050565b61397281613957565b82525050565b600060208201905061398d6000830184613969565b92915050565b600060c0820190506139a86000830189612c60565b81810360208301526139ba8188612f12565b905081810360408301526139ce8187612f12565b90506139dd6060830186612c60565b6139ea6080830185612c60565b6139f760a083018461362d565b979650505050505050565b7f5265656e7472616e637947756172643a207265656e7472616e742063616c6c00600082015250565b6000613a38601f83612f01565b9150613a4382613a02565b602082019050919050565b60006020820190508181036000830152613a6781613a2b565b9050919050565b6000604082019050613a836000830185612c60565b613a906020830184612c60565b9392505050565b7f4e487b7100000000000000000000000000000000000000000000000000000000600052602260045260246000fd5b60006002820490506001821680613ade57607f821691505b60208210811415613af257613af1613a97565b5b50919050565b613b0181612beb565b82525050565b6000602082019050613b1c6000830184613af8565b92915050565b600081519050613b3181612f6d565b92915050565b600060208284031215613b4d57613b4c612bc1565b5b6000613b5b84828501613b22565b91505092915050565b7f6e6f2066756e6473000000000000000000000000000000000000000000000000600082015250565b6000613b9a600883612f01565b9150613ba582613b64565b602082019050919050565b60006020820190508181036000830152613bc981613b8d565b9050919050565b60008190508160005260206000209050919050565b60008154613bf281613ac6565b613bfc8186612f01565b94506001821660008114613c175760018114613c2957613c5c565b60ff1983168652602086019350613c5c565b613c3285613bd0565b60005b83811015613c5457815481890152600182019150602081019050613c35565b808801955050505b50505092915050565b7f3078000000000000000000000000000000000000000000000000000000000000600082015250565b6000613c9b600283613647565b9150613ca682613c65565b602082019050919050565b6000819050919050565b600063ffffffff82169050919050565b6000819050919050565b6000613cf0613ceb613ce684613cb1565b613ccb565b613cbb565b9050919050565b613d0081613cd5565b82525050565b6000613d21613d1c613d1784612bcb565b613ccb565b612bcb565b9050919050565b6000613d3382613d06565b9050919050565b6000613d4582613d28565b9050919050565b613d5581613d3a565b82525050565b6000819050919050565b60006bffffffffffffffffffffffff82169050919050565b6000613d98613d93613d8e84613d5b565b613ccb565b613d65565b9050919050565b613da881613d7d565b82525050565b6000610100820190508181036000830152613dc98188613be5565b90508181036020830152613ddc81613c8e565b9050613deb6040830187613af8565b613df86060830186613cf7565b613e056080830185613d4c565b81810360a0830152613e1681613c8e565b905081810360c0830152613e2981613c8e565b9050613e3860e0830184613d9f565b9695505050505050565b600081905092915050565b50565b6000613e5d600083613e42565b9150613e6882613e4d565b600082019050919050565b6000613e7e82613e50565b9150819050919050565b6000604082019050613e9d6000830185613d4c565b613eaa6020830184613af8565b9392505050565b7f4e487b7100000000000000000000000000000000000000000000000000000000600052601160045260246000fd5b6000613eeb82612c56565b9150613ef683612c56565b9250827fffffffffffffffffffffffffffffffffffffffffffffffffffffffffffffffff03821115613f2b57613f2a613eb1565b5b828201905092915050565b6000613f4182612c56565b9150613f4c83612c56565b925082821015613f5f57613f5e613eb1565b5b82820390509291505056fea2646970667358221220c5cfaa1b39e4f95d6268fe5ef4e5dd2243e5d982e2a45c610a1371d1aab0546064736f6c63430008080033a264697066735822122019abddac233fe39fc4f5a91863ff381d136c56dd79795439ecc8d82d7274c47564736f6c63430008080033",
  "linkReferences": {},
  "deployedLinkReferences": {}
}